{
  "contractName": "fyp",
  "abi": [
    {
      "anonymous": false,
      "inputs": [
        {
          "indexed": true,
          "internalType": "uint256",
          "name": "productId",
          "type": "uint256"
        },
        {
          "indexed": true,
          "internalType": "uint256",
          "name": "parentId",
          "type": "uint256"
        },
        {
          "indexed": false,
          "internalType": "address",
          "name": "sender",
          "type": "address"
        },
        {
          "indexed": false,
          "internalType": "address",
          "name": "receiver",
          "type": "address"
        }
      ],
      "name": "TransactionAdded",
      "type": "event"
    },
    {
      "inputs": [
        {
          "internalType": "uint256",
          "name": "_productId",
          "type": "uint256"
        },
        {
          "internalType": "uint256",
          "name": "_parentId",
          "type": "uint256"
        },
        {
          "internalType": "address",
          "name": "_sender",
          "type": "address"
        },
        {
          "internalType": "address",
          "name": "_receiver",
          "type": "address"
        }
      ],
      "name": "addTransaction",
      "outputs": [],
      "stateMutability": "nonpayable",
      "type": "function"
    },
    {
      "inputs": [
        {
          "internalType": "uint256",
          "name": "productId",
          "type": "uint256"
        }
      ],
      "name": "getProductLineage",
      "outputs": [
        {
          "internalType": "uint256[][]",
          "name": "",
          "type": "uint256[][]"
        }
      ],
      "stateMutability": "view",
      "type": "function"
    },
    {
      "inputs": [
        {
          "internalType": "uint256",
          "name": "productId",
          "type": "uint256"
        }
      ],
      "name": "getTransactionSender",
      "outputs": [
        {
          "internalType": "address",
          "name": "",
          "type": "address"
        }
      ],
      "stateMutability": "view",
      "type": "function"
    },
    {
      "inputs": [
        {
          "internalType": "uint256",
          "name": "productId",
          "type": "uint256"
        }
      ],
      "name": "getTransactionReceiver",
      "outputs": [
        {
          "internalType": "address",
          "name": "",
          "type": "address"
        }
      ],
      "stateMutability": "view",
      "type": "function"
    }
  ],
  "bytecode": "0x608060405234801561001057600080fd5b50610889806100206000396000f3fe608060405234801561001057600080fd5b506004361061004c5760003560e01c80634c95aefe1461005157806352e61b2514610081578063c57c71a2146100b1578063e8ea851f146100e1575b600080fd5b61006b60048036038101906100669190610497565b6100fd565b6040516100789190610505565b60405180910390f35b61009b60048036038101906100969190610497565b61013a565b6040516100a89190610505565b60405180910390f35b6100cb60048036038101906100c69190610497565b610177565b6040516100d891906106a0565b60405180910390f35b6100fb60048036038101906100f691906106ee565b61029c565b005b60006001600083815260200190815260200160002060009054906101000a900473ffffffffffffffffffffffffffffffffffffffff169050919050565b60006002600083815260200190815260200160002060009054906101000a900473ffffffffffffffffffffffffffffffffffffffff169050919050565b606060008060008481526020019081526020016000208054905067ffffffffffffffff8111156101aa576101a9610755565b5b6040519080825280602002602001820160405280156101dd57816020015b60608152602001906001900390816101c85790505b50905060005b600080858152602001908152602001600020805490508110156102925760008085815260200190815260200160002080548060200260200160405190810160405280929190818152602001828054801561025c57602002820191906000526020600020905b815481526020019060010190808311610248575b505050505082828151811061027457610273610784565b5b6020026020010181905250808061028a906107e2565b9150506101e3565b5080915050919050565b6000808481526020019081526020016000206000808681526020019081526020016000209080546102ce9291906103ed565b50600080858152602001908152602001600020839080600181540180825580915050600190039060005260206000200160009091909190915055816001600086815260200190815260200160002060006101000a81548173ffffffffffffffffffffffffffffffffffffffff021916908373ffffffffffffffffffffffffffffffffffffffff160217905550806002600086815260200190815260200160002060006101000a81548173ffffffffffffffffffffffffffffffffffffffff021916908373ffffffffffffffffffffffffffffffffffffffff16021790555082847f1ed2ffd659bfaa08312d62df66c1c2694fe5f1b405e2fd4017e1aea971749a4884846040516103df92919061082a565b60405180910390a350505050565b82805482825590600052602060002090810192821561042e5760005260206000209182015b8281111561042d578254825591600101919060010190610412565b5b50905061043b919061043f565b5090565b5b80821115610458576000816000905550600101610440565b5090565b600080fd5b6000819050919050565b61047481610461565b811461047f57600080fd5b50565b6000813590506104918161046b565b92915050565b6000602082840312156104ad576104ac61045c565b5b60006104bb84828501610482565b91505092915050565b600073ffffffffffffffffffffffffffffffffffffffff82169050919050565b60006104ef826104c4565b9050919050565b6104ff816104e4565b82525050565b600060208201905061051a60008301846104f6565b92915050565b600081519050919050565b600082825260208201905092915050565b6000819050602082019050919050565b600081519050919050565b600082825260208201905092915050565b6000819050602082019050919050565b61058181610461565b82525050565b60006105938383610578565b60208301905092915050565b6000602082019050919050565b60006105b78261054c565b6105c18185610557565b93506105cc83610568565b8060005b838110156105fd5781516105e48882610587565b97506105ef8361059f565b9250506001810190506105d0565b5085935050505092915050565b600061061683836105ac565b905092915050565b6000602082019050919050565b600061063682610520565b610640818561052b565b9350836020820285016106528561053c565b8060005b8581101561068e578484038952815161066f858261060a565b945061067a8361061e565b925060208a01995050600181019050610656565b50829750879550505050505092915050565b600060208201905081810360008301526106ba818461062b565b905092915050565b6106cb816104e4565b81146106d657600080fd5b50565b6000813590506106e8816106c2565b92915050565b600080600080608085870312156107085761070761045c565b5b600061071687828801610482565b945050602061072787828801610482565b9350506040610738878288016106d9565b9250506060610749878288016106d9565b91505092959194509250565b7f4e487b7100000000000000000000000000000000000000000000000000000000600052604160045260246000fd5b7f4e487b7100000000000000000000000000000000000000000000000000000000600052603260045260246000fd5b7f4e487b7100000000000000000000000000000000000000000000000000000000600052601160045260246000fd5b60006107ed82610461565b91507fffffffffffffffffffffffffffffffffffffffffffffffffffffffffffffffff820361081f5761081e6107b3565b5b600182019050919050565b600060408201905061083f60008301856104f6565b61084c60208301846104f6565b939250505056fea2646970667358221220d647fc95b241806ba3f347037c7afcf634e39c6fa9f101c43d04b2496ff2065764736f6c63430008130033",
  "immutableReferences": {},
  "source": "// SPDX-License-Identifier: UNLICENSED\r\npragma solidity ^0.8.19;\r\n\r\ncontract fyp {\r\n    \r\n    // Map to store the parent products for each product ID\r\n    mapping(uint256 => uint256[]) private parentProducts;\r\n    \r\n    // Map to store the senders for each transaction\r\n    mapping(uint256 => address) private senders;\r\n    \r\n    // Map to store the receivers for each transaction\r\n    mapping(uint256 => address) private receivers;\r\n\r\n    // Event to log the addition of a transaction\r\n    event TransactionAdded(uint256 indexed productId, uint256 indexed parentId, address sender, address receiver);\r\n\r\n    function addTransaction(uint256 _productId, uint256 _parentId, address _sender, address _receiver) public {\r\n        // Add the transaction and update the parent products map\r\n        parentProducts[_productId] = parentProducts[_parentId];\r\n        parentProducts[_productId].push(_parentId);\r\n        \r\n        // Record the sender and receiver of the transaction\r\n        senders[_productId] = _sender;\r\n        receivers[_productId] = _receiver;\r\n        \r\n        emit TransactionAdded(_productId, _parentId, _sender, _receiver);\r\n    }\r\n\r\n    function getProductLineage(uint256 productId) public view returns (uint256[][] memory) {\r\n        // Return the parent products for the given product ID as a 2D array\r\n        uint256[][] memory lineage = new uint256[][](parentProducts[productId].length);\r\n        for (uint i = 0; i < parentProducts[productId].length; i++) {\r\n            lineage[i] = parentProducts[productId];\r\n        }\r\n        return lineage;\r\n    }\r\n    \r\n    function getTransactionSender(uint256 productId) public view returns (address) {\r\n        // Return the sender for the given product ID\r\n        return senders[productId];\r\n    }\r\n    \r\n    function getTransactionReceiver(uint256 productId) public view returns (address) {\r\n        // Return the receiver for the given product ID\r\n        return receivers[productId];\r\n    }\r\n}\r\n",
  "sourcePath": "C:\\Users\\mohit\\FYP\\Mohit\\contracts\\fyp.sol",
  "compiler": {
    "name": "solc",
    "version": "0.8.19+commit.7dd6d404.Emscripten.clang"
  },
  "schemaVersion": "3.4.13",
  "updatedAt": "2023-04-29T20:32:04.989Z",
  "devdoc": {
    "kind": "dev",
    "methods": {},
    "version": 1
  },
  "userdoc": {
    "kind": "user",
    "methods": {},
    "version": 1
  }
}