{
  "contractName": "Transaction",
  "abi": [
    {
      "anonymous": false,
      "inputs": [
        {
          "indexed": true,
          "internalType": "uint256",
          "name": "productId",
          "type": "uint256"
        },
        {
          "indexed": true,
          "internalType": "uint256",
          "name": "parentId",
          "type": "uint256"
        },
        {
          "indexed": false,
          "internalType": "address payable",
          "name": "sender",
          "type": "address"
        },
        {
          "indexed": false,
          "internalType": "address payable",
          "name": "receiver",
          "type": "address"
        }
      ],
      "name": "TransactionAdded",
      "type": "event"
    },
    {
      "inputs": [
        {
          "internalType": "uint256",
          "name": "",
          "type": "uint256"
        },
        {
          "internalType": "uint256",
          "name": "",
          "type": "uint256"
        }
      ],
      "name": "lineageMap",
      "outputs": [
        {
          "internalType": "uint256",
          "name": "",
          "type": "uint256"
        }
      ],
      "stateMutability": "view",
      "type": "function",
      "constant": true
    },
    {
      "inputs": [
        {
          "internalType": "uint256",
          "name": "_productId",
          "type": "uint256"
        },
        {
          "internalType": "uint256",
          "name": "_parentId",
          "type": "uint256"
        },
        {
          "internalType": "address payable",
          "name": "_sender",
          "type": "address"
        },
        {
          "internalType": "address payable",
          "name": "_receiver",
          "type": "address"
        }
      ],
      "name": "addTransaction",
      "outputs": [],
      "stateMutability": "nonpayable",
      "type": "function"
    },
    {
      "inputs": [
        {
          "internalType": "address payable",
          "name": "_owner",
          "type": "address"
        }
      ],
      "name": "getBalance",
      "outputs": [
        {
          "internalType": "uint256",
          "name": "",
          "type": "uint256"
        }
      ],
      "stateMutability": "view",
      "type": "function",
      "constant": true
    },
    {
      "inputs": [
        {
          "internalType": "uint256",
          "name": "productId",
          "type": "uint256"
        }
      ],
      "name": "getTransactionSender",
      "outputs": [
        {
          "internalType": "address",
          "name": "",
          "type": "address"
        }
      ],
      "stateMutability": "view",
      "type": "function",
      "constant": true
    },
    {
      "inputs": [
        {
          "internalType": "uint256",
          "name": "productId",
          "type": "uint256"
        }
      ],
      "name": "getTransactionReceiver",
      "outputs": [
        {
          "internalType": "address",
          "name": "",
          "type": "address"
        }
      ],
      "stateMutability": "view",
      "type": "function",
      "constant": true
    },
    {
      "inputs": [
        {
          "internalType": "uint256",
          "name": "productId",
          "type": "uint256"
        }
      ],
      "name": "getParent",
      "outputs": [
        {
          "internalType": "uint256[]",
          "name": "",
          "type": "uint256[]"
        }
      ],
      "stateMutability": "view",
      "type": "function",
      "constant": true
    }
  ],
  "bytecode": "0x608060405234801561001057600080fd5b50610715806100206000396000f3fe608060405234801561001057600080fd5b50600436106100625760003560e01c8063414533de146100675780634af35876146100975780634c95aefe146100c757806352e61b25146100f7578063e8ea851f14610127578063f8b2cb4f14610143575b600080fd5b610081600480360381019061007c9190610402565b610173565b60405161008e91906104ed565b60405180910390f35b6100b160048036038101906100ac919061050f565b6101dd565b6040516100be919061055e565b60405180910390f35b6100e160048036038101906100dc9190610402565b61020e565b6040516100ee91906105ba565b60405180910390f35b610111600480360381019061010c9190610402565b61024b565b60405161011e91906105ba565b60405180910390f35b610141600480360381019061013c9190610613565b610288565b005b61015d6004803603810190610158919061067a565b6103a6565b60405161016a919061055e565b60405180910390f35b60606000808381526020019081526020016000208054806020026020016040519081016040528092919081815260200182805480156101d157602002820191906000526020600020905b8154815260200190600101908083116101bd575b50505050509050919050565b600360205281600052604060002081815481106101f957600080fd5b90600052602060002001600091509150505481565b60006001600083815260200190815260200160002060009054906101000a900473ffffffffffffffffffffffffffffffffffffffff169050919050565b60006002600083815260200190815260200160002060009054906101000a900473ffffffffffffffffffffffffffffffffffffffff169050919050565b600080858152602001908152602001600020839080600181540180825580915050600190039060005260206000200160009091909190915055816001600086815260200190815260200160002060006101000a81548173ffffffffffffffffffffffffffffffffffffffff021916908373ffffffffffffffffffffffffffffffffffffffff160217905550806002600086815260200190815260200160002060006101000a81548173ffffffffffffffffffffffffffffffffffffffff021916908373ffffffffffffffffffffffffffffffffffffffff16021790555082847f1ed2ffd659bfaa08312d62df66c1c2694fe5f1b405e2fd4017e1aea971749a4884846040516103989291906106b6565b60405180910390a350505050565b60008173ffffffffffffffffffffffffffffffffffffffff16319050919050565b600080fd5b6000819050919050565b6103df816103cc565b81146103ea57600080fd5b50565b6000813590506103fc816103d6565b92915050565b600060208284031215610418576104176103c7565b5b6000610426848285016103ed565b91505092915050565b600081519050919050565b600082825260208201905092915050565b6000819050602082019050919050565b610464816103cc565b82525050565b6000610476838361045b565b60208301905092915050565b6000602082019050919050565b600061049a8261042f565b6104a4818561043a565b93506104af8361044b565b8060005b838110156104e05781516104c7888261046a565b97506104d283610482565b9250506001810190506104b3565b5085935050505092915050565b60006020820190508181036000830152610507818461048f565b905092915050565b60008060408385031215610526576105256103c7565b5b6000610534858286016103ed565b9250506020610545858286016103ed565b9150509250929050565b610558816103cc565b82525050565b6000602082019050610573600083018461054f565b92915050565b600073ffffffffffffffffffffffffffffffffffffffff82169050919050565b60006105a482610579565b9050919050565b6105b481610599565b82525050565b60006020820190506105cf60008301846105ab565b92915050565b60006105e082610579565b9050919050565b6105f0816105d5565b81146105fb57600080fd5b50565b60008135905061060d816105e7565b92915050565b6000806000806080858703121561062d5761062c6103c7565b5b600061063b878288016103ed565b945050602061064c878288016103ed565b935050604061065d878288016105fe565b925050606061066e878288016105fe565b91505092959194509250565b6000602082840312156106905761068f6103c7565b5b600061069e848285016105fe565b91505092915050565b6106b0816105d5565b82525050565b60006040820190506106cb60008301856106a7565b6106d860208301846106a7565b939250505056fea2646970667358221220d16674b78bf1b476bb3e46c4e203104f31f31215b7c7363fe572127df611694164736f6c63430008130033",
  "immutableReferences": {},
  "source": "// SPDX-License-Identifier: UNLICENSED\r\npragma solidity ^0.8.19;\r\n\r\ncontract Transaction {\r\n    \r\n    // Map to store the parent products for each product ID\r\n    mapping(uint256 => uint256[]) private parentProducts;\r\n    \r\n    // Map to store the senders for each transaction\r\n    mapping(uint256 => address) private senders;\r\n    \r\n    // Map to store the receivers for each transaction\r\n    mapping(uint256 => address) private receivers;\r\n\r\n    // Global map for returning lineage\r\n    mapping(uint256 => uint256[]) public lineageMap;\r\n\r\n    // Event to log the addition of a transaction\r\n    event TransactionAdded(uint256 indexed productId, uint256 indexed parentId, address payable sender, address payable receiver);\r\n\r\n    function addTransaction(uint256 _productId, uint256 _parentId, address payable _sender, address payable _receiver) public {\r\n        // Update the parent products map\r\n        parentProducts[_productId].push(_parentId);\r\n        \r\n        // Record the sender and receiver of the transaction\r\n        senders[_productId] = _sender;\r\n        receivers[_productId] = _receiver;\r\n\r\n        emit TransactionAdded(_productId, _parentId, _sender, _receiver);\r\n    }\r\n    \r\n    function getBalance(address payable _owner) public view returns(uint256){\r\n        return _owner.balance;\r\n    }\r\n\r\n    function getTransactionSender(uint256 productId) public view returns (address) {\r\n        // Return the sender for the given product ID\r\n        return senders[productId];\r\n    }\r\n    \r\n    function getTransactionReceiver(uint256 productId) public view returns (address) {\r\n        // Return the receiver for the given product ID\r\n        return receivers[productId];\r\n    }\r\n\r\n    function getParent(uint256 productId) public view returns (uint256[] memory){\r\n        return parentProducts[productId];\r\n    }\r\n}\r\n",
  "sourcePath": "C:\\Users\\mohit\\FYP\\Mohit\\contracts\\ProductLineage.sol",
  "compiler": {
    "name": "solc",
    "version": "0.8.19+commit.7dd6d404.Emscripten.clang"
  },
  "schemaVersion": "3.4.13",
  "updatedAt": "2023-04-29T20:32:08.178Z",
  "networkType": "ethereum",
  "devdoc": {
    "kind": "dev",
    "methods": {},
    "version": 1
  },
  "userdoc": {
    "kind": "user",
    "methods": {},
    "version": 1
  }
}